{
  "contractName": "CDI",
  "abi": [
    {
      "constant": true,
      "inputs": [],
      "name": "stock",
      "outputs": [
        {
          "internalType": "uint256",
          "name": "",
          "type": "uint256"
        }
      ],
      "payable": false,
      "stateMutability": "view",
      "type": "function"
    },
    {
      "constant": false,
      "inputs": [],
      "name": "_CDI",
      "outputs": [],
      "payable": false,
      "stateMutability": "nonpayable",
      "type": "function"
    }
  ],
  "bytecode": "0x6080604052348015600f57600080fd5b5060a38061001e6000396000f3fe6080604052348015600f57600080fd5b506004361060325760003560e01c806340b622fa146037578063bdf3c4ae14603f575b600080fd5b603d605b565b005b60456068565b6040518082815260200191505060405180910390f35b63014fb180600081905550565b6000548156fea265627a7a723158207a8622a3b27ff1d4cff0920c441b46b6d76a85e2e9dc3f0ed8c94c6716fd6c5164736f6c63430005100032",
  "source": "pragma solidity ^0.5.0;\n\ncontract CDI {\n\tuint256 public stock;  \n\tfunction _CDI  () public {\n\t\tstock = 22000000;\n\t}\n}",
  "sourcePath": "/Users/damiana/Documents/Coding Projects/ My Projects/CDI/contracts/CDI.sol",
  "compiler": {
    "name": "solc",
    "version": "0.5.16+commit.9c3226ce.Emscripten.clang"
  },
  "schemaVersion": "3.4.1",
  "updatedAt": "2021-07-21T17:22:32.027Z",
  "networkType": "ethereum",
  "devdoc": {
    "methods": {}
  },
  "userdoc": {
    "methods": {}
  }
}